{
  "contractName": "Faucet",
  "abi": [
    {
      "inputs": [],
      "name": "counter",
      "outputs": [
        {
          "internalType": "int256",
          "name": "",
          "type": "int256"
        }
      ],
      "stateMutability": "view",
      "type": "function"
    },
    {
      "inputs": [],
      "name": "funds",
      "outputs": [
        {
          "internalType": "uint256",
          "name": "",
          "type": "uint256"
        }
      ],
      "stateMutability": "view",
      "type": "function"
    },
    {
      "inputs": [],
      "name": "test",
      "outputs": [
        {
          "internalType": "uint32",
          "name": "",
          "type": "uint32"
        }
      ],
      "stateMutability": "view",
      "type": "function"
    }
  ],
  "bytecode": "0x60806040526103e86000557ffffffffffffffffffffffffffffffffffffffffffffffffffffffffffffffff660015563ffffffff600260006101000a81548163ffffffff021916908363ffffffff16021790555034801561005f57600080fd5b5061019a8061006f6000396000f3fe608060405234801561001057600080fd5b50600436106100415760003560e01c806361bc221a14610046578063c89f2ce414610064578063f8a8fd6d14610082575b600080fd5b61004e6100a0565b60405161005b91906100ef565b60405180910390f35b61006c6100a6565b604051610079919061010a565b60405180910390f35b61008a6100ac565b6040516100979190610125565b60405180910390f35b60015481565b60005481565b600260009054906101000a900463ffffffff1681565b6100cb81610140565b82525050565b6100da8161014a565b82525050565b6100e981610154565b82525050565b600060208201905061010460008301846100c2565b92915050565b600060208201905061011f60008301846100d1565b92915050565b600060208201905061013a60008301846100e0565b92915050565b6000819050919050565b6000819050919050565b600063ffffffff8216905091905056fea2646970667358221220599220800559b224811b162fec97e2f3ab2f25a481bc205d5f103550022b4e8764736f6c63430008040033",
  "immutableReferences": {},
  "source": "pragma solidity >=0.4.22 <0.9.0;\r\n\r\ncontract Faucet {\r\n    //storage variables\r\n    uint public funds = 1000; // uint holds only positive values\r\n    int public counter = -10;\r\n    uint32 public test = 4294967295;\r\n}",
  "sourcePath": "C:\\Users\\ernab\\Desktop\\coding\\web3\\blockchain\\faucet\\contracts\\FaucetContract.sol",
  "compiler": {
    "name": "solc",
    "version": "0.8.4+commit.c7e474f2.Emscripten.clang"
  },
  "schemaVersion": "3.4.16",
  "updatedAt": "2025-02-15T18:43:01.813Z",
  "devdoc": {
    "kind": "dev",
    "methods": {},
    "version": 1
  },
  "userdoc": {
    "kind": "user",
    "methods": {},
    "version": 1
  }
}