{
  "contractName": "Faucet",
  "abi": [
    {
      "constant": true,
      "inputs": [],
      "name": "counter",
      "outputs": [
        {
          "name": "",
          "type": "int256"
        }
      ],
      "payable": false,
      "stateMutability": "view",
      "type": "function"
    },
    {
      "constant": true,
      "inputs": [],
      "name": "funds",
      "outputs": [
        {
          "name": "",
          "type": "uint256"
        }
      ],
      "payable": false,
      "stateMutability": "view",
      "type": "function"
    }
  ],
  "bytecode": "0x60806040526103e86000557ffffffffffffffffffffffffffffffffffffffffffffffffffffffffffffffff660015534801561003a57600080fd5b5060d0806100496000396000f3fe6080604052600436106043576000357c01000000000000000000000000000000000000000000000000000000009004806361bc221a146048578063c89f2ce4146070575b600080fd5b348015605357600080fd5b50605a6098565b6040518082815260200191505060405180910390f35b348015607b57600080fd5b506082609e565b6040518082815260200191505060405180910390f35b60015481565b6000548156fea165627a7a723058204a66338e8f9ebb568127eb0c7ea9f2dd3fd06dfd913696394546983c76e3556a0029",
  "source": "// SPDX-License-Identifier: MIT\r\npragma solidity >=0.4.22 <0.9.0;\r\n\r\ncontract Faucet {\r\n    // storage variables\r\n    uint public funds = 1000; // uint holds only positive values\r\n    int public counter = -10;\r\n}\r\n\r\n",
  "sourcePath": "C:\\Users\\ernab\\Desktop\\coding\\web3\\blockchain\\faucet\\contracts\\FaucetContract.sol",
  "compiler": {
    "name": "solc",
    "version": "0.5.1+commit.c8a2cb62.Emscripten.clang"
  },
  "schemaVersion": "3.4.16",
  "updatedAt": "2024-05-28T18:26:19.902Z",
  "devdoc": {
    "methods": {}
  },
  "userdoc": {
    "methods": {}
  }
}